{
    "contractName": "Arbitrage2",
    "abi": [
        {
            "inputs": [],
            "stateMutability": "nonpayable",
            "type": "constructor"
        },
        {
            "inputs": [
                {
                    "internalType": "address",
                    "name": "_token0",
                    "type": "address"
                },
                {
                    "internalType": "address",
                    "name": "_token1",
                    "type": "address"
                },
                {
                    "internalType": "address",
                    "name": "_router0",
                    "type": "address"
                },
                {
                    "internalType": "address",
                    "name": "_router1",
                    "type": "address"
                },
                {
                    "internalType": "uint256",
                    "name": "_amountIn",
                    "type": "uint256"
                },
                {
                    "internalType": "uint256",
                    "name": "_amountOut",
                    "type": "uint256"
                },
                {
                    "internalType": "uint256",
                    "name": "_deadline",
                    "type": "uint256"
                }
            ],
            "name": "doubleSwap",
            "outputs": [],
            "stateMutability": "nonpayable",
            "type": "function"
        },
        {
            "inputs": [
                {
                    "internalType": "uint256",
                    "name": "_amount",
                    "type": "uint256"
                },
                {
                    "internalType": "address",
                    "name": "_token",
                    "type": "address"
                }
            ],
            "name": "withdrawToken",
            "outputs": [],
            "stateMutability": "nonpayable",
            "type": "function"
        }
    ],
    "bytecode": "608060405234801561001057600080fd5b50600080546001600160a01b0319163317905561088c806100326000396000f3fe608060405234801561001057600080fd5b50600436106100365760003560e01c8063ba299a021461003b578063be4b177214610050575b600080fd5b61004e610049366004610625565b610063565b005b61004e61005e3660046106d2565b61055a565b6000546001600160a01b031633146100965760405162461bcd60e51b815260040161008d90610798565b60405180910390fd5b80428110156100b75760405162461bcd60e51b815260040161008d906107c0565b6040516370a0823160e01b815288906000906001600160a01b038316906370a08231906100e89030906004016106fd565b60206040518083038186803b15801561010057600080fd5b505afa158015610114573d6000803e3d6000fd5b505050506040513d601f19601f8201168201806040525081019061013891906106ba565b90508581101561015a5760405162461bcd60e51b815260040161008d90610761565b60405163095ea7b360e01b81526001600160a01b0383169063095ea7b390610188908b908a90600401610711565b602060405180830381600087803b1580156101a257600080fd5b505af11580156101b6573d6000803e3d6000fd5b505050506040513d601f19601f820116820180604052508101906101da9190610693565b506040805160028082526060820183526000926020830190803683370190505090508a8160008151811061021e57634e487b7160e01b600052603260045260246000fd5b60200260200101906001600160a01b031690816001600160a01b031681525050898160018151811061026057634e487b7160e01b600052603260045260246000fd5b6001600160a01b039283166020918202929092010152604051635c11d79560e01b8152908a1690635c11d795906102a3908a908a90869030908c906004016107e6565b600060405180830381600087803b1580156102bd57600080fd5b505af11580156102d1573d6000803e3d6000fd5b50506040516370a0823160e01b8152600092506001600160a01b038d1691506370a08231906103049030906004016106fd565b60206040518083038186803b15801561031c57600080fd5b505afa158015610330573d6000803e3d6000fd5b505050506040513d601f19601f8201168201806040525081019061035491906106ba565b60405163095ea7b360e01b81529091506001600160a01b038c169063095ea7b390610385908c908590600401610711565b602060405180830381600087803b15801561039f57600080fd5b505af11580156103b3573d6000803e3d6000fd5b505050506040513d601f19601f820116820180604052508101906103d79190610693565b508a826000815181106103fa57634e487b7160e01b600052603260045260246000fd5b60200260200101906001600160a01b031690816001600160a01b0316815250508b8260018151811061043c57634e487b7160e01b600052603260045260246000fd5b6001600160a01b039283166020918202929092010152604051635c11d79560e01b8152908a1690635c11d7959061047f9084908c90879030908d906004016107e6565b600060405180830381600087803b15801561049957600080fd5b505af11580156104ad573d6000803e3d6000fd5b50506040516370a0823160e01b81528592506001600160a01b03871691506370a08231906104df9030906004016106fd565b60206040518083038186803b1580156104f757600080fd5b505afa15801561050b573d6000803e3d6000fd5b505050506040513d601f19601f8201168201806040525081019061052f91906106ba565b1161054c5760405162461bcd60e51b815260040161008d9061072a565b505050505050505050505050565b6000546001600160a01b031633146105845760405162461bcd60e51b815260040161008d90610798565b60405163a9059cbb60e01b81526001600160a01b0382169063a9059cbb906105b29033908690600401610711565b602060405180830381600087803b1580156105cc57600080fd5b505af11580156105e0573d6000803e3d6000fd5b505050506040513d601f19601f820116820180604052508101906106049190610693565b505050565b80356001600160a01b038116811461062057600080fd5b919050565b600080600080600080600060e0888a03121561063f578283fd5b61064888610609565b965061065660208901610609565b955061066460408901610609565b945061067260608901610609565b9699959850939660808101359560a0820135955060c0909101359350915050565b6000602082840312156106a4578081fd5b815180151581146106b3578182fd5b9392505050565b6000602082840312156106cb578081fd5b5051919050565b600080604083850312156106e4578182fd5b823591506106f460208401610609565b90509250929050565b6001600160a01b0391909116815260200190565b6001600160a01b03929092168252602082015260400190565b60208082526017908201527f4152423a204641494c555245204c4f5354204d4f4e4559000000000000000000604082015260600190565b60208082526017908201527f4152423a204e4f5420454e4f55474820544f4b454e2030000000000000000000604082015260600190565b6020808252600e908201526d20a9211d102727aa1027aba722a960911b604082015260600190565b6020808252600c908201526b1054908e881156141254915160a21b604082015260600190565b600060a082018783526020878185015260a0604085015281875180845260c0860191508289019350845b818110156108355784516001600160a01b031683529383019391830191600101610810565b50506001600160a01b0396909616606085015250505060800152939250505056fea264697066735822122055aebf9c4232a5699a7d11726107a800ab5afa8e9f379ee8febca94c2bce831f64736f6c63430008000033",
    "sourcePath": "d:/RamNew2020/Ethereum/Arbitrage4/contracts/Arbitrage2.sol",
    "compiler": {
        "name": "solc",
        "version": "0.8.0+commit.c7dfd78e"
    },
    "functionHashes": {
        "doubleSwap(address,address,address,address,uint256,uint256,uint256)": "ba299a02",
        "withdrawToken(uint256,address)": "be4b1772"
    },
    "gasEstimates": {
        "creation": {
            "codeDepositCost": "437600",
            "executionCost": "21309",
            "totalCost": "458909"
        },
        "external": {
            "doubleSwap(address,address,address,address,uint256,uint256,uint256)": "infinite",
            "withdrawToken(uint256,address)": "infinite"
        }
    }
}