{
    "contractName": "Arbitrage",
    "abi": [
        {
            "inputs": [
                {
                    "internalType": "address",
                    "name": "_WMATIC",
                    "type": "address"
                }
            ],
            "stateMutability": "nonpayable",
            "type": "constructor"
        },
        {
            "anonymous": false,
            "inputs": [
                {
                    "indexed": true,
                    "internalType": "address",
                    "name": "previousOwner",
                    "type": "address"
                },
                {
                    "indexed": true,
                    "internalType": "address",
                    "name": "newOwner",
                    "type": "address"
                }
            ],
            "name": "OwnershipTransferred",
            "type": "event"
        },
        {
            "inputs": [],
            "name": "balanceWMATIC",
            "outputs": [
                {
                    "internalType": "uint256",
                    "name": "",
                    "type": "uint256"
                }
            ],
            "stateMutability": "view",
            "type": "function"
        },
        {
            "inputs": [],
            "name": "buyWMATIC",
            "outputs": [],
            "stateMutability": "payable",
            "type": "function"
        },
        {
            "inputs": [
                {
                    "internalType": "uint256",
                    "name": "_amountIn",
                    "type": "uint256"
                },
                {
                    "internalType": "address",
                    "name": "_router1",
                    "type": "address"
                },
                {
                    "internalType": "address",
                    "name": "_router2",
                    "type": "address"
                },
                {
                    "internalType": "address",
                    "name": "_token",
                    "type": "address"
                },
                {
                    "internalType": "uint256",
                    "name": "_deadline",
                    "type": "uint256"
                }
            ],
            "name": "doubleSwap",
            "outputs": [],
            "stateMutability": "nonpayable",
            "type": "function"
        },
        {
            "inputs": [],
            "name": "owner",
            "outputs": [
                {
                    "internalType": "address",
                    "name": "",
                    "type": "address"
                }
            ],
            "stateMutability": "view",
            "type": "function"
        },
        {
            "inputs": [],
            "name": "renounceOwnership",
            "outputs": [],
            "stateMutability": "nonpayable",
            "type": "function"
        },
        {
            "inputs": [
                {
                    "internalType": "address",
                    "name": "newOwner",
                    "type": "address"
                }
            ],
            "name": "transferOwnership",
            "outputs": [],
            "stateMutability": "nonpayable",
            "type": "function"
        },
        {
            "inputs": [],
            "name": "userWMATIC",
            "outputs": [
                {
                    "internalType": "uint256",
                    "name": "",
                    "type": "uint256"
                }
            ],
            "stateMutability": "view",
            "type": "function"
        },
        {
            "inputs": [
                {
                    "internalType": "uint256",
                    "name": "_amount",
                    "type": "uint256"
                }
            ],
            "name": "withdrawWMATIC",
            "outputs": [],
            "stateMutability": "nonpayable",
            "type": "function"
        }
    ],
    "bytecode": "608060405234801561001057600080fd5b50604051610d3d380380610d3d83398101604081905261002f916100b8565b61003f61003a610064565b610068565b600180546001600160a01b0319166001600160a01b03929092169190911790556100e6565b3390565b600080546001600160a01b038381166001600160a01b0319831681178455604051919092169283917f8be0079c531659141344cd1fd0a4f28419497f9722a3daafe3b4186f6b6457e09190a35050565b6000602082840312156100c9578081fd5b81516001600160a01b03811681146100df578182fd5b9392505050565b610c48806100f56000396000f3fe60806040526004361061007b5760003560e01c80638da5cb5b1161004e5780638da5cb5b146100ea578063ae97b9a91461010c578063e08fb97f14610121578063f2fde38b146101415761007b565b8063397423951461008057806357e974cc1461008a5780636484b5df146100b5578063715018a6146100d5575b600080fd5b610088610161565b005b34801561009657600080fd5b5061009f6101cc565b6040516100ac9190610b99565b60405180910390f35b3480156100c157600080fd5b506100886100d0366004610a10565b610252565b3480156100e157600080fd5b5061008861076c565b3480156100f657600080fd5b506100ff6107b7565b6040516100ac9190610a64565b34801561011857600080fd5b5061009f6107c6565b34801561012d57600080fd5b5061008861013c3660046109e0565b6107f7565b34801561014d57600080fd5b5061008861015c36600461099f565b6108be565b600160009054906101000a90046001600160a01b03166001600160a01b031663d0e30db0346040518263ffffffff1660e01b81526004016000604051808303818588803b1580156101b157600080fd5b505af11580156101c5573d6000803e3d6000fd5b5050505050565b6001546040516370a0823160e01b81526000916001600160a01b0316906370a08231906101fd903090600401610a64565b60206040518083038186803b15801561021557600080fd5b505afa158015610229573d6000803e3d6000fd5b505050506040513d601f19601f8201168201806040525081019061024d91906109f8565b905090565b61025a61092f565b6001600160a01b031661026b6107b7565b6001600160a01b03161461029a5760405162461bcd60e51b815260040161029190610b34565b60405180910390fd5b80428110156102bb5760405162461bcd60e51b815260040161029190610b0e565b6001546040516370a0823160e01b81526000916001600160a01b0316906370a08231906102ec903090600401610a64565b60206040518083038186803b15801561030457600080fd5b505afa158015610318573d6000803e3d6000fd5b505050506040513d601f19601f8201168201806040525081019061033c91906109f8565b90508681101561035e5760405162461bcd60e51b815260040161029190610b69565b60015460405163095ea7b360e01b81526001600160a01b039091169063095ea7b3906103909089908b90600401610a78565b602060405180830381600087803b1580156103aa57600080fd5b505af11580156103be573d6000803e3d6000fd5b505050506040513d601f19601f820116820180604052508101906103e291906109c0565b50604080516002808252606082018352600092602083019080368337505060015482519293506001600160a01b03169183915060009061043257634e487b7160e01b600052603260045260246000fd5b60200260200101906001600160a01b031690816001600160a01b031681525050848160018151811061047457634e487b7160e01b600052603260045260246000fd5b6001600160a01b039283166020918202929092010152604051635c11d79560e01b815290881690635c11d795906104b8908b90600090869030908b90600401610ba2565b600060405180830381600087803b1580156104d257600080fd5b505af11580156104e6573d6000803e3d6000fd5b50506040516370a0823160e01b8152600092506001600160a01b03881691506370a0823190610519903090600401610a64565b60206040518083038186803b15801561053157600080fd5b505afa158015610545573d6000803e3d6000fd5b505050506040513d601f19601f8201168201806040525081019061056991906109f8565b9050858260008151811061058d57634e487b7160e01b600052603260045260246000fd5b6001600160a01b03928316602091820292909201015260018054845192169184919081106105cb57634e487b7160e01b600052603260045260246000fd5b6001600160a01b03928316602091820292909201015260405163095ea7b360e01b81529087169063095ea7b390610608908a908590600401610a78565b602060405180830381600087803b15801561062257600080fd5b505af1158015610636573d6000803e3d6000fd5b505050506040513d601f19601f8201168201806040525081019061065a91906109c0565b50604051635c11d79560e01b81526001600160a01b03881690635c11d79590610690908490600090879030908c90600401610ba2565b600060405180830381600087803b1580156106aa57600080fd5b505af11580156106be573d6000803e3d6000fd5b50506001546040516370a0823160e01b81528693506001600160a01b0390911691506370a08231906106f4903090600401610a64565b60206040518083038186803b15801561070c57600080fd5b505afa158015610720573d6000803e3d6000fd5b505050506040513d601f19601f8201168201806040525081019061074491906109f8565b116107615760405162461bcd60e51b815260040161029190610a91565b505050505050505050565b61077461092f565b6001600160a01b03166107856107b7565b6001600160a01b0316146107ab5760405162461bcd60e51b815260040161029190610b34565b6107b56000610933565b565b6000546001600160a01b031690565b6001546040516370a0823160e01b81526000916001600160a01b0316906370a08231906101fd903390600401610a64565b6107ff61092f565b6001600160a01b03166108106107b7565b6001600160a01b0316146108365760405162461bcd60e51b815260040161029190610b34565b60015460405163a9059cbb60e01b81526001600160a01b039091169063a9059cbb906108689033908590600401610a78565b602060405180830381600087803b15801561088257600080fd5b505af1158015610896573d6000803e3d6000fd5b505050506040513d601f19601f820116820180604052508101906108ba91906109c0565b5050565b6108c661092f565b6001600160a01b03166108d76107b7565b6001600160a01b0316146108fd5760405162461bcd60e51b815260040161029190610b34565b6001600160a01b0381166109235760405162461bcd60e51b815260040161029190610ac8565b61092c81610933565b50565b3390565b600080546001600160a01b038381166001600160a01b0319831681178455604051919092169283917f8be0079c531659141344cd1fd0a4f28419497f9722a3daafe3b4186f6b6457e09190a35050565b80356001600160a01b038116811461099a57600080fd5b919050565b6000602082840312156109b0578081fd5b6109b982610983565b9392505050565b6000602082840312156109d1578081fd5b815180151581146109b9578182fd5b6000602082840312156109f1578081fd5b5035919050565b600060208284031215610a09578081fd5b5051919050565b600080600080600060a08688031215610a27578081fd5b85359450610a3760208701610983565b9350610a4560408701610983565b9250610a5360608701610983565b949793965091946080013592915050565b6001600160a01b0391909116815260200190565b6001600160a01b03929092168252602082015260400190565b60208082526017908201527f4152423a204641494c555245204c4f5354204d4f4e4559000000000000000000604082015260600190565b60208082526026908201527f4f776e61626c653a206e6577206f776e657220697320746865207a65726f206160408201526564647265737360d01b606082015260800190565b6020808252600c908201526b1054908e881156141254915160a21b604082015260600190565b6020808252818101527f4f776e61626c653a2063616c6c6572206973206e6f7420746865206f776e6572604082015260600190565b6020808252601690820152754152423a204e4f5420454e4f55474820574d4154494360501b604082015260600190565b90815260200190565b600060a082018783526020878185015260a0604085015281875180845260c0860191508289019350845b81811015610bf15784516001600160a01b031683529383019391830191600101610bcc565b50506001600160a01b0396909616606085015250505060800152939250505056fea26469706673582212203a2767d783066872981cee4802e27d771957aff51aefa1accb02458c917b2bf464736f6c63430008000033",
    "sourcePath": "d:/RamNew2020/Ethereum/Arbitrage4/contracts/Arbitrage.sol",
    "compiler": {
        "name": "solc",
        "version": "0.8.0+commit.c7dfd78e"
    },
    "functionHashes": {
        "balanceWMATIC()": "57e974cc",
        "buyWMATIC()": "39742395",
        "doubleSwap(uint256,address,address,address,uint256)": "6484b5df",
        "owner()": "8da5cb5b",
        "renounceOwnership()": "715018a6",
        "transferOwnership(address)": "f2fde38b",
        "userWMATIC()": "ae97b9a9",
        "withdrawWMATIC(uint256)": "e08fb97f"
    },
    "gasEstimates": {
        "creation": {
            "codeDepositCost": "628800",
            "executionCost": "infinite",
            "totalCost": "infinite"
        },
        "external": {
            "balanceWMATIC()": "infinite",
            "buyWMATIC()": "infinite",
            "doubleSwap(uint256,address,address,address,uint256)": "infinite",
            "owner()": "1070",
            "renounceOwnership()": "23571",
            "transferOwnership(address)": "23765",
            "userWMATIC()": "infinite",
            "withdrawWMATIC(uint256)": "infinite"
        }
    }
}