{
    "contractName": "Arbitrage2",
    "abi": [
        {
            "inputs": [],
            "stateMutability": "nonpayable",
            "type": "constructor"
        },
        {
            "inputs": [
                {
                    "internalType": "address",
                    "name": "_token0",
                    "type": "address"
                },
                {
                    "internalType": "address",
                    "name": "_token1",
                    "type": "address"
                },
                {
                    "internalType": "address",
                    "name": "_router0",
                    "type": "address"
                },
                {
                    "internalType": "address",
                    "name": "_router1",
                    "type": "address"
                },
                {
                    "internalType": "uint256",
                    "name": "_amountIn",
                    "type": "uint256"
                },
                {
                    "internalType": "uint256",
                    "name": "_amountOut",
                    "type": "uint256"
                },
                {
                    "internalType": "uint256",
                    "name": "_deadline",
                    "type": "uint256"
                }
            ],
            "name": "doubleSwap",
            "outputs": [],
            "stateMutability": "nonpayable",
            "type": "function"
        },
        {
            "inputs": [
                {
                    "internalType": "uint256",
                    "name": "_amount",
                    "type": "uint256"
                },
                {
                    "internalType": "address",
                    "name": "_token",
                    "type": "address"
                }
            ],
            "name": "withdrawToken",
            "outputs": [],
            "stateMutability": "nonpayable",
            "type": "function"
        }
    ],
    "bytecode": "608060405234801561001057600080fd5b50600080546001600160a01b0319163317905561093d806100326000396000f3fe608060405234801561001057600080fd5b50600436106100365760003560e01c8063ba299a021461003b578063be4b177214610050575b600080fd5b61004e6100493660046106b3565b610063565b005b61004e61005e366004610760565b6105e8565b6000546001600160a01b031633146100965760405162461bcd60e51b815260040161008d90610826565b60405180910390fd5b80438110156100b75760405162461bcd60e51b815260040161008d9061084e565b6040516370a0823160e01b815288906000906001600160a01b038316906370a08231906100e890309060040161078b565b60206040518083038186803b15801561010057600080fd5b505afa158015610114573d6000803e3d6000fd5b505050506040513d601f19601f820116820180604052508101906101389190610748565b90508581101561015a5760405162461bcd60e51b815260040161008d906107ef565b6040516370a0823160e01b815289906000906001600160a01b038316906370a082319061018b90309060040161078b565b60206040518083038186803b1580156101a357600080fd5b505afa1580156101b7573d6000803e3d6000fd5b505050506040513d601f19601f820116820180604052508101906101db9190610748565b60405163095ea7b360e01b81529091506001600160a01b0385169063095ea7b39061020c908d908c9060040161079f565b602060405180830381600087803b15801561022657600080fd5b505af115801561023a573d6000803e3d6000fd5b505050506040513d601f19601f8201168201806040525081019061025e9190610721565b506040805160028082526060820183526000926020830190803683370190505090508c816000815181106102a257634e487b7160e01b600052603260045260246000fd5b60200260200101906001600160a01b031690816001600160a01b0316815250508b816001815181106102e457634e487b7160e01b600052603260045260246000fd5b6001600160a01b039283166020918202929092010152604051635c11d79560e01b8152908c1690635c11d79590610327908c908c90869030904290600401610874565b600060405180830381600087803b15801561034157600080fd5b505af1158015610355573d6000803e3d6000fd5b50506040516370a0823160e01b8152600092506001600160a01b03861691506370a082319061038890309060040161078b565b60206040518083038186803b1580156103a057600080fd5b505afa1580156103b4573d6000803e3d6000fd5b505050506040513d601f19601f820116820180604052508101906103d89190610748565b60405163095ea7b360e01b81529091506001600160a01b0385169063095ea7b390610409908e90859060040161079f565b602060405180830381600087803b15801561042357600080fd5b505af1158015610437573d6000803e3d6000fd5b505050506040513d601f19601f8201168201806040525081019061045b9190610721565b508c8260008151811061047e57634e487b7160e01b600052603260045260246000fd5b60200260200101906001600160a01b031690816001600160a01b0316815250508d826001815181106104c057634e487b7160e01b600052603260045260246000fd5b6001600160a01b0392831660209182029290920101528b16635c11d7956104e785846108e4565b8c8530426040518663ffffffff1660e01b815260040161050b959493929190610874565b600060405180830381600087803b15801561052557600080fd5b505af1158015610539573d6000803e3d6000fd5b50506040516370a0823160e01b81528792506001600160a01b03891691506370a082319061056b90309060040161078b565b60206040518083038186803b15801561058357600080fd5b505afa158015610597573d6000803e3d6000fd5b505050506040513d601f19601f820116820180604052508101906105bb9190610748565b116105d85760405162461bcd60e51b815260040161008d906107b8565b5050505050505050505050505050565b6000546001600160a01b031633146106125760405162461bcd60e51b815260040161008d90610826565b60405163a9059cbb60e01b81526001600160a01b0382169063a9059cbb90610640903390869060040161079f565b602060405180830381600087803b15801561065a57600080fd5b505af115801561066e573d6000803e3d6000fd5b505050506040513d601f19601f820116820180604052508101906106929190610721565b505050565b80356001600160a01b03811681146106ae57600080fd5b919050565b600080600080600080600060e0888a0312156106cd578283fd5b6106d688610697565b96506106e460208901610697565b95506106f260408901610697565b945061070060608901610697565b9699959850939660808101359560a0820135955060c0909101359350915050565b600060208284031215610732578081fd5b81518015158114610741578182fd5b9392505050565b600060208284031215610759578081fd5b5051919050565b60008060408385031215610772578182fd5b8235915061078260208401610697565b90509250929050565b6001600160a01b0391909116815260200190565b6001600160a01b03929092168252602082015260400190565b60208082526017908201527f4152423a204641494c555245204c4f5354204d4f4e4559000000000000000000604082015260600190565b60208082526017908201527f4152423a204e4f5420454e4f55474820544f4b454e2030000000000000000000604082015260600190565b6020808252600e908201526d20a9211d102727aa1027aba722a960911b604082015260600190565b6020808252600c908201526b1054908e881156141254915160a21b604082015260600190565b600060a082018783526020878185015260a0604085015281875180845260c0860191508289019350845b818110156108c35784516001600160a01b03168352938301939183019160010161089e565b50506001600160a01b03969096166060850152505050608001529392505050565b60008282101561090257634e487b7160e01b81526011600452602481fd5b50039056fea264697066735822122073f0f74b2e20e9f73718779ac9f9fbcb686706e24ecb0c47ae5a66d2ff3b2ddf64736f6c63430008000033",
    "sourcePath": "d:/RamNew2020/Ethereum/Arbitrage4/contracts/Arbitrage2.sol",
    "compiler": {
        "name": "solc",
        "version": "0.8.0+commit.c7dfd78e"
    },
    "functionHashes": {
        "doubleSwap(address,address,address,address,uint256,uint256,uint256)": "ba299a02",
        "withdrawToken(uint256,address)": "be4b1772"
    },
    "gasEstimates": {
        "creation": {
            "codeDepositCost": "473000",
            "executionCost": "21340",
            "totalCost": "494340"
        },
        "external": {
            "doubleSwap(address,address,address,address,uint256,uint256,uint256)": "infinite",
            "withdrawToken(uint256,address)": "infinite"
        }
    }
}